00000000000003700138GAJI0401037320777000MF0003100000060661039.00102019
084650965820000002031990000000000723TRI ANANTA MURTI              CCPS
045650613570000001748845000000000732SUNAIMAH WATI                 CCPS
044511439420000003510638000000000738KUDUS SETIAWAN                CCPS
080202984490000001778090000000000790ZAIN AHMAD ZUMARA             CCPS
040605973110000002270090000000000909SUGIYANTO                     CCPS
045605887420000001426580000000001044AGUSTINA DEWI ASTUTI          CCPS
045651013910000001964005000000001143DESI RUSTIANA MAHARANI        CCPS
003705272020000001802287000000001230JONI EDIANTO                  CCPS
045651192820000001165000000000001233ONI HERKUTANTO                CCPS
080202779130000001915000000000001434MARTA MANDIRA                 CCPS
012212390890000001555090000000002519AGUNG MULIANA                 CCPS
045609240500000003295090000000003807ADE KRISTANTO                 CCPS
044518194660000002022590000000003911TRIYONO                       CCPS
044518215330000001680090000000003917MEYAR NABELA PRAYUDHI         CCPS
006006403210000001370000000000004103ARDI YUNANTO                  CCPS
080204912140000001535000000000004121IKA YUNI ASTUTI               CCPS
045605469000000001755090000000000706CHRISTINA APRI KOSSETYAWATI   CVCC
012605468950000002822278000000000719ADITIA AJI PRATAMA            CVCC
045650512970000001942439000000000788WAKHID FATKHUROHMAN           CVCC
003735770540000003950090000000001124ALEXSANDER TYASTOMO           CVCC
045609463710000000906864000000001495DIMAS SANTOSO                 CVCC
086102097430000000000000000000002139SURYA PRADHANA HARUMANTO      CVCC
044514770340000001469840000000002308BOBBY AGUSTA WALDI            CVCC
003737312070000001480480000000002309ARDI PUTRA RAMADHAN           CVCC
044512483290000001331554000000002350YUDHI SETYAWAN                CVCC
045608997640000002661390000000003655BAGAS RINEKSO                 CVCC
006007770170000001730090000000003751SURYA WIBAWA                  CVCC
045609156030000001461590000000003763SONIGIAN PRATAMA              CVCC
045609196090000002966449000000003790SETYO SANTOSO                 CVCC
003008397970000003445000000000004075ILYAS IRIANTO                 CVCC
080204154290000001667500000000004111MUHAMMAD ANUGRAH ARDIANSYAH P CVCC
